:020000040800F2
:10000000F0080020AD010008A93800083F330008BF
:1000100049350008911F0008014100080000000058
:10002000000000000000000000000000A93A0008E5
:10003000931F00080000000055390008313B0008FC
:10004000C7010008C7010008C7010008C701000870
:10005000C7010008C7010008C7010008C701000860
:10006000C7010008C7010008C7010008C701000850
:10007000C7010008C7010008C7010008C701000840
:10008000C7010008C7010008C7010008C701000830
:10009000C7010008C7010008C7010008C701000820
:1000A000C7010008893B0008C7010008C701000814
:1000B000C7010008953B0008C7010008C7010008F8
:1000C000C7010008C7010008C7010008C7010008F0
:1000D000C701000865400008C7010008C701000803
:1000E000951F0008C7010008C701000800F002F8CA
:1000F00000F04DF80AA090E8000C82448344AAF175
:100100000107DA4501D100F042F8AFF2090EBAE872
:100110000F0013F0010F18BFFB1A43F0010318473B
:10012000B45F0000D45F0000103A24BF78C878C1E3
:10013000FAD8520724BF30C830C144BF04680C60ED
:10014000704700000023002400250026103A28BF35
:1001500078C1FBD8520728BF30C148BF0B60704739
:10016000662905F04786002070471FB500F00CFC9B
:1001700004000020002104F075FD401C6060002098
:10018000002104F059FDE0601FBD10B510BD00F066
:100190008DFD1146FFF7E9FF04F010FC01F036F881
:1001A00003B4FFF7F2FF03BC01F0A4FA094880474B
:1001B00009480047FEE7FEE7FEE7FEE7FEE7FEE749
:1001C000FEE7FEE7FEE7FEE704480549054A064B61
:1001D00070470000853B0008ED000008F002002099
:1001E000F0080020F0040020F00400200FB41CB53B
:1001F000084B06AA7B4469460090059800F0F3FA84
:1002000004460020694600F001FB20461CBC5DF856
:1002100014FB0000150600002DE9F0474FF0000A1E
:1002200089460446C0F820A02046E1688847002897
:1002300076D0252806D0D4E901219047206A401CB9
:100240002062F1E7E168204600258847C4F81CA039
:1002500006460027C4F818A02A2E09D0304604F01C
:100260000CFB38B304EB8708303EC8F8186019E07F
:1002700059F8041B204604EB87029161E168884726
:10028000012F064618D1E069002820DA25F0200564
:100290001DE0D8F8180000EB800006EB4000303875
:1002A000C8F818002046E1688847064604F0E5FAD9
:1002B0000028EED1012F0AD02E2E08D12046E16869
:1002C00088477F1C0646022F45F02005C4DBA06945
:1002D000002803DA404245F00105A061E80701D09B
:1002E00025F01005B6B1A6F14100192802D8203634
:1002F00045F400654A463146204625604D46FFF7E5
:100300002FFF58B1012806D0ED1D25F0070000F1A0
:10031000080989E704E005F1040985E730468AE722
:10032000206ABDE8F08770B5064600F039F8046829
:10033000054630460A22002100F0C0FA2C6070BD4C
:10034000014A00F0F3BA0000A80000204FF00002BC
:1003500000B5134694469646203922BFA0E80C50BB
:10036000A0E80C50B1F12001BFF4F7AF090728BF96
:10037000A0E80C5048BF0CC05DF804EB890028BF12
:1003800040F8042B08BF704748BF20F8022B11F03B
:10039000804F18BF00F8012B7047704770477047B7
:1003A000004870478C02002010B5FFF7F9FF006885
:1003B00010BD10B50446FFF7F3FF046010BD704791
:1003C0002DE9FF4F0C461E464FF0FF378BB0D2E9A8
:1003D0000001DDF860800A908A46C1F30A5505B92C
:1003E0003D46002108464FF00000BAF1000F00F42E
:1003F000400005DA00EB80004FF4400101EA5000B4
:100400004FEA9059B9F1010F00DDB9460A9850EA58
:100410004A000ED044F61050A5F2FF3545432F1484
:10042000B8F1000F1ED07542291E1EDDC9F1000271
:100430001CE0B8F1010F4FF0000001D0302103E0C3
:10044000F24305E02154401CB042FBDB3046002261
:10045000002121540B99C1F80880C1E900200FB098
:10046000BDE8F08FBD1B6D1CDEE74A4600DA69422D
:1004700006A800F08BFB06AB93E8070003AB83E80C
:10048000070050460A9901F04FF98DE80700A0F5E2
:1004900000501F3800900398002D0ADD42F21F0122
:1004A0004A460844002303A90390684601F0FAFB7A
:1004B00009E0A0F500504A461F38002303A9039025
:1004C000684601F019FC8DE807000004000C03D019
:1004D0004FF0FF30410800E01046B8F1000F03D0A4
:1004E0000022009215461EE0751E05D400F050FA59
:1004F000303262556D1EF9D5B3460122084302D051
:1005000000227F1C04E02078302801D100227F1EC9
:10051000002A099784D01DE0112D07DA00F038FA7F
:10052000303262556D1C50EA0102F5D1084302D009
:100530000098C8B10EE00021681E05E0235C625CF3
:1005400063542254401E491C8142F7DBAB46A81B72
:10055000401E0990002004F80B000B98099AC0F87F
:100560000880C0E9002B7AE711264FF0000857E712
:100570002DE9F04F88460446D21D22F0070191B0C4
:10058000D1E90001CDE90A0103F0BBFD02460B9859
:10059000C00F01D02D2007E02068810701D52B2056
:1005A00002E0202101EAC000032A099001D0072AB5
:1005B00005DB03464146204600F038FA0BE120787F
:1005C000800601D5E06900E00620B8F1650F81469C
:1005D00006D0B8F1660F18D0B8F1670F70D131E0CE
:1005E0000020B9F1110F009001DB112301E009F1A6
:1005F00001030AAA01A90CA8FFF7E2FEDDE90C70CD
:10060000002609F10105834647E001204B46009092
:100610004FF000470AAA01A90CA8FFF7D1FEDDE9B7
:100620000DB00C995D46002610B909F101000D18B6
:10063000B9EB050003D4C0F1FF3609F10105A5EBC4
:1006400009002BE0B9F1010F01DA4FF00109002098
:10065000B9F1110F0090484601DD112300E0034677
:100660000AAA01A90CA8FFF7ABFEDDE90C704D4604
:1006700000268346207800070AD4AB4500DA5D46A1
:1006800001A8012D04DD411911F8011C302907D002
:100690004F4502DA17F1040F04DA012082460FE019
:1006A0006D1EEEE7002F02DCED1B3E4403E0781CDC
:1006B000A84200DD7D1CB81B00F1010A4FF0004785
:1006C0002078000703D4AA4501DB4FF0FF3A002150
:1006D000B7F1004F0DF143088DF8431024D00220EC
:1006E0002B23002F01DA7F422D230A21021EA0F1C5
:1006F000010000DC5FB197FBF1FC97FBF1F201FB1D
:100700001C7C17460CF1300C08F801CDEEE7A8F17F
:10071000010003702188090501D5452100E065210C
:10072000A0F1010800F8011C09980FA9A1EB080726
:10073000FF1D00B10120411901EBEA70A1693844A5
:10074000081A401EA0612078C00602D42046AFF3EC
:100750000080099828B1D4E901219047206A401C03
:1007600020622078C00622D52046AFF300801EE02C
:10077000002E04DBB34502DD01A8805D00E03020DF
:10078000D4E901219047206A401C2062761CAAF11E
:1007900001005FEA000A0AD100F0F6F8C0680168BB
:1007A000405CD4E901219047206A401C2062281E49
:1007B000A5F10105DCDC07E0D4E9012118F8010B03
:1007C0009047206A401C2062381EA7F10107F3DC25
:1007D0002046AFF30080032011B041E601694A1CB6
:1007E00002610878704700B58FB0CDE90131002172
:1007F000059105497944CDE9031011466846FFF794
:100800000BFD0FB000BD0000E5FFFFFF0A6802F816
:10081000010B0A60704700000FB4002300B589B0D7
:100820000CA900910B99CB60214B7B440693214B83
:100830007B44079304236FF00042CDE901321E4A46
:100840007A446B4608920246002005F035FB09B059
:100850005DF814FB70B506464FF0FF3015460C46A8
:10086000324686B00091CDE901016946002004902E
:1008700004A8FFF7D1FF02460498211825B108B15A
:10088000084600E020462860049800280DD0002A81
:1008900002DD0098884208D03246081B6946009461
:1008A000CDE9010404A8FFF7B7FF06B070BD000052
:1008B0007F02000097020000D70100002DE9F047F9
:1008C00091460F4680460446002614F8015B2DB180
:1008D00000F052F80068405DC007F6D12B2D02D021
:1008E0002D2D18D0641E4A463946204600F0FEF8E9
:1008F00027B13968A14201D1C7F800804FF0020446
:1009000071050BD54042002803DDFFF749FD046067
:10091000A007BDE8F08746F48066E4E70028F8DA2F
:10092000FFF73EFD04606FF00040F2E72DE9F04173
:1009300015460E46040002D12C6804B90BA42046CB
:1009400000F0A6F90444207870B1274631463846B5
:1009500000F08EF90444207810B1002004F8010B57
:1009600038462C60BDE8F0810027F9E70000000060
:10097000004870478C02002010B500F005F8001DFB
:1009800010BD00BFE142000000487047AC020020EB
:1009900030B5B0F10A024FEA900E71F100034EEA51
:1009A000817EB0EB0E0061EB91014FEA101E4EEA22
:1009B000017E10EB0E0041EB11114FEA102E4EEAB2
:1009C000016E10EB0E0041EB11214FEA104E4EEA82
:1009D000014E10EB0E0041EB1141401841F10001B6
:1009E0004FEAD00040EA41704FEAD10110EB800598
:1009F0004FEA810444EA907444EB01046D1944EB1E
:100A00000404521BA3414FF0000348BF0A3200D533
:100A100030BD401C41F1000130BD10B50446FFF768
:100A2000ABFF0068005D00F0010010BD2DE9F04152
:100A30001F46044603260168072A01F4006004DB10
:100A400008B116A505E016A503E008B115A500E05C
:100A500015A521F010002060A069C01EA0610FB193
:100A6000401EA0612046AFF300804FB1D4E90121C0
:100A700038469047206A401C2062C01C206206E075
:100A8000206AFAE7D4E9012115F8010B9047761E98
:100A9000F8D22046AFF30080BDE8F0814E414E0011
:100AA0006E616E00494E4600696E6600426842B152
:100AB000016811F8013B23B1521EC0E9001218462B
:100AC00070470121C160881E704742685AB1C368EF
:100AD000016843B983688B4205D0491E521CC0E9A6
:100AE0000012002070474FF0FF3070472DE9F05F93
:100AF000824615468B4600270AF10104B946007864
:100B0000302801D09DB113E014F8010B012778289B
:100B100003D0582801D045B10AE00DB1102D07D1FE
:100B2000002714F8010B102502E0082500E00A2533
:100B30000026B0460EE005FB080005FB06F1012784
:100B40001FFA80F801EB1046B6F5803F00D3B94696
:100B500014F8010B294600F0CEF80028EBDABBF1BF
:100B6000000F05D00FB1641E00E05446CBF80040E2
:100B7000B9F1000F06D0FFF713FC02210160C81E77
:100B8000BDE8F09F48EA0640FAE700002DE9F0478B
:100B9000814616468AB0354878440DC88DE80D0068
:100BA00032487844801C03AC0DC884E80D0041F63F
:100BB0009B300844372190FBF1F290FBF1F5A5F151
:100BC000800501FB12041B3C02D56442012000E0B9
:100BD0000020DFF898A080460027FA44AAF1BE0A58
:100BE0000EE0E0070AD03246684607EB47010123D2
:100BF0000AEB810101F080F88DE8070064107F1C8A
:100C0000002CEED1194F7F44AE3F19E0E80715D014
:100C100007EB04100DF1180A90E80E008AE80E00A8
:100C2000C068F04201D1981908903246012306A904
:100C300003A801F061F803AB83E807006D10641CA2
:100C4000002DE3D14FF0010332466946B8F1000FA1
:100C500003A802D001F026F801E001F04DF8C9E93F
:100C60000001C9F808200AB0BDE8F087205500004F
:100C700030B503461D781DB10A4603E0AC4201D1F0
:100C8000181A30BD12F8014B002CF7D15B1CF1E7AC
:100C900030B503461D783DB10A4612F8014B1CB130
:100CA000AC42FAD15B1CF5E7181A30BD7546FFF768
:100CB0005FFEAE4605006946534620F007008546B4
:100CC00018B020B5FFF780FABDE820404FF00006CD
:100CD0004FF000074FF000084FF0000B21F0070124
:100CE000AC46ACE8C009ACE8C009ACE8C009ACE867
:100CF000C0098D4670473A2800D2303820F02002D3
:100D0000412A01D3A2F13700884201D34FF0FF30CE
:100D1000704700002DE9FF4F06468BB00878FF288A
:100D200006D0491C2D2805D000244FF0000908E00A
:100D300000200CE00124F8E709EB8903491C00EBD3
:100D400043090878FF28F7D114B1C9F100008146A2
:100D5000107800252C46AA4629462D2801D02B289C
:100D600004D1521C2D2813D0002082468B461078C7
:100D7000FF280FD04FF0000C0A21521CA5FB017870
:100D800004FB018105FB0C11C5194BEB0104EEE7D7
:100D90000120EAE7002108464FF00000BAF1000FF9
:100DA00002D000EB80004008C0F38157012F01DD25
:100DB0004FF0FF370E9955EA040009EB01080BD0FC
:100DC0004FF0020918F5FA7F16DA4FEACA70002FC1
:100DD000706008DD012007E04FEACA70C6E900B084
:100DE0000FB0BDE8F08F00203060FFF7D9FAC0F8EF
:100DF00000901821084616E0B8F5FA7F18DD002F9C
:100E000002DAF748784401E0F6487844D0E9001067
:100E1000C6E9001040EACA707060FFF7C1FAC0F876
:100E20000090142108460FB0BDE8F04F04F0DFBF7A
:100E3000002108464FF00000B8F10001099002DAE5
:100E4000C7F1000200E03A4601DAC8F1000106A845
:100E5000FFF79CFE06AB93E8070003AB83E80700AF
:100E600044F23E005BEA04010090584604D144F28B
:100E70001E012C465D460091210C0904014306D158
:100E80000099240444EA15442D041039009104F01B
:100E90007F41014306D10099240244EA15642D02E2
:100EA0000839009104F07041014306D100992401F2
:100EB00044EA15742D01091F009104F040410143DB
:100EC00006D10099A40044EA9574AD00891E0091F2
:100ED00004F00041084304D100986D196441401E9C
:100EE00000904FF001033A466846B8F1000FCDE993
:100EF000014503A902DD00F014FF01E000F0E7FE68
:100F0000BAF1000F04460D4601D084F000440021E0
:100F100008464FF00000099940F2FF77484010F072
:100F20000C0F07D124F00040284303D0C4F30A502B
:100F3000B84212D1FFF734FAC0F80090C4F30A5057
:100F4000B8420AD1A8487844D0E90010C6E9001098
:100F500004F000410843706042E7C6E900543FE7EF
:100F60002DE9FF4F1F464FF0000A4FF0FF3845466E
:100F700091B0D7E90146CDF83CA0FFF705FDC06868
:100F80000168405C1090B96912986D1C8847396AF5
:100F9000814688470028F6D1B9F1FF3F0AD0002EDC
:100FA00024F4D06411DDB9F12B0F08D0B9F12D0F65
:100FB0000BD102E0404615B013E744F48064B969F0
:100FC00012986D1C8847761E8146600504A901D5DC
:100FD0002D2000E02B20002E01F1010B0DF1300837
:100FE0008DF810003FDDB9F1690F08D0B9F1490F54
:100FF00005D0B9F16E0F02D0B9F14E0F1CD13B46AE
:1010000001A8009580E85002DDE912126FF002009D
:1010100004F056FFC11CCED10EE0B96912986D1CC8
:10102000884781461398761E44F4007405600F9833
:10103000401C002E0F9016DDB9F1300FEDD0B9F144
:10104000780F02D0B9F1580F0DD10F9801280AD1AD
:101050003B46CDE90054DDE91212001F029604F070
:101060002DFFC11CA7D1109989453ED144F08004C1
:1010700006E01399681CAAF1010A44F400740860A0
:10108000B9696D1C1298761E884730288146F0D0C9
:101090002BE01099894505D1200603D4761E44F033
:1010A000800418E0484603F0E8FB08B3761E0DF113
:1010B00023018B4544F4007408D2A9F130000BF8E9
:1010C000010B200607D5AAF1010003E0200602D497
:1010D0000AF101008246A00502D51399681C086038
:1010E000B96912986D1C88478146002ED1DC53E007
:1010F000002E51DDB9F1650F02D0B9F1450F4BD18A
:10110000A00549D5B9696D1C1298761E24F4407467
:101110008847002E81460CDD2B2804D0B9F12D0F15
:1011200007D144F48074B96912986D1C8847761E03
:101130008146E00501D52D2100E02B2108F8011B97
:10114000CDF8008021E0761E0DF13901884544F488
:1011500000740CD2A9F1300010F0FF0088F80000F4
:1011600002D10099884509D908F1010806E0E00597
:1011700001D51E4801E042F20F708246B96912980B
:101180006D1C8847814613980560002E04DD484693
:1011900003F073FB0028D6D1F96912988847FF2025
:1011A00053468BF8000088F8000000200A900B904E
:1011B00004AA0CA90AA8FFF7ADFDA00502D46FF0A0
:1011C0000100F8E614F0240F12D0E0071CD13868B3
:1011D000DDE90A12031D3B600068C0E9001213E05C
:1011E000F4520000E6520000AA510000F1D8FFFFBF
:1011F0000AA9684603F0D0FAE00705D13868009ADA
:10120000011D3960006802602846D4E610B5044626
:10121000AFF300802046BDE81040FEF7C1BF0000DC
:101220004FF0013C50F8042B51F8043B9A4221D175
:10123000A2EB0C03934313EACC1317D150F8042B01
:1012400051F8043B9A4215D1A2EB0C03934313EAE5
:10125000CC130BD150F8042B51F8043B9A4209D11E
:10126000A2EB0C03934313EACC13DBD04FF0000046
:10127000704700BFD01A01BAB1FA81F101F018012C
:1012800022FA01F0CB40C1F12001DBB2C0B2C01A9A
:101290002CFA01F3D11A914311EAC311E6D1704738
:1012A0002DE9FF4F1F464FF03C0987B04FF0004239
:1012B000DDE9141001F10108DDF858A002EA405000
:1012C0000390002005908346054604460490B969C2
:1012D000461E08988847AAF1010A0290BAF1000F49
:1012E0003BDD02982E2815D01021FFF704FD0028C1
:1012F0002EDB4FF0010B0599014317D0B9F1000F18
:101300000BDB4A46C11700F0FBF905430C43A9F17A
:10131000040905E0012004900BE008B145F0010547
:1013200001200590049820B9361D02E0049800B110
:10133000361FB969089808F101088847BBF1000F0A
:10134000AAF1010A0290C9D00999C1F80080C5E745
:101350000298702808D0502806D0F9690898884764
:10136000BBF1000F14D04FE0002002900120BBF130
:10137000000F049009D0B969089808F1010888475E
:10138000AAF10109B9F1000F07DCF969089888474B
:101390006FF001000BB0BDE8F08F2B2804D02D2892
:1013A0000CD14FF0FF300490B969089808F101089A
:1013B0008847A9F10109B9F1000FE6DD411CE4D02D
:1013C0000A21FFF798FC0028DFDB029908F10108E9
:1013D00001EB810100EB41000290B9690898884750
:1013E0000A21FFF788FC099AA9F10109B9F1000F58
:1013F000C2F8008001DD0028E7DAF969089888471B
:101400000499029800FB016655EA040004D004F038
:101410004041090002D006E0039898E0A40044EAA5
:101420009574AD00B61E04F00041080002D16D199C
:101430006441761E159810F0240F03D04FF00B096D
:101440005C4803E04FF028096FF07D008246564566
:1014500007DAAAEB06018944B9F1410F01DD4FF02B
:10146000410901200021A9F1010200F049F90246D9
:1014700028400B462140084301D0012100E0002113
:10148000501E029143F1FF3128402140084301D012
:10149000012000E000200299834651EA0B014FD061
:1014A000002108464FF00000039900F4400039B1D4
:1014B00000EB80004FF4400100EBD07001EA6000C7
:1014C0008015012802DD4FF0FF3000E013D0401CF2
:1014D00036D0029860B3BBF1000F0CD14A46012010
:1014E000002100F00DF928402140084301D00120DF
:1014F00000E00020E0B101204A46002100F000F9A0
:10150000034640190A4661412D1A8C4111D3B9F1A5
:10151000400F09DD159810F0240F02D0AAF134060F
:1015200003E0AAF1170600E0761C00254FF0004406
:1015300006E05B1E42F1FF3220EA030521EA0204C5
:10154000CAF10100B04206DA1B4903980843019032
:10155000002000900EE0039AC4F3D321E80A0A4366
:10156000164940EA44500A433146CDE90002684634
:1015700003F078F9159810F0240F0BD01598C007D8
:1015800015D13868DDE90012031D3B600068C0E931
:1015900000120CE002A8694603F0FEF81598C00797
:1015A00005D13868029A011D396000680260404622
:1015B000F0E6000002FCFFFF0000F07F0000F03FBB
:1015C0002DE9FF4F92461D4685B04FF00041DDE901
:1015D000124BDDE914727F1E01EA4B50414940F085
:1015E000FF4940EA0108002122F020004928049127
:1015F00002D04E2828D04CE03BA0012607C88DE839
:101600000700A9690698641C88477F1E014606D416
:101610001DF8060018B121F0200181420BD0E969C4
:1016200006988847032E34D0082E32D06FF0010080
:1016300009B0BDE8F08F761C032E01D0082EE0D152
:10164000601CCAF80000DCE7A9690698641C88479A
:101650007F1E2AD420F02000412826D1A9690698AF
:10166000641C88477F1E20D420F020004E281CD107
:10167000A9690698641C88477F1E48F4002849F42D
:101680008009CAF8004001D4282806D0E9690698E4
:1016900088475FEACB7012D022E0A9690698641CE3
:1016A00088477F1E01D4002803DAE9690698884735
:1016B000BCE72928F1D1641CCAF80040E9E71BF017
:1016C000240F07D028680499031D2B600068C0E927
:1016D000001805E02868021D2A600068C0F8009024
:1016E0002046A5E70000F07F494E46494E4954592F
:1016F0000000000001491820ABBEFEE726000200F2
:10170000B2F120030AD5C2F1200301FA02F120FA56
:1017100003F300FA02F041EA0301704700FA03F113
:101720004FF00000704770475FEA400C08BF91F02F
:10173000000F4FEA8C234FEAC12243EA51514FEA8E
:101740001C5018BF00F5F0404FEA300018BF41F0C0
:1017500000415FEA6C5C00F02980BCF1FF3F08BFEC
:1017600040F080407047130C06BF12044FF0100C7D
:101770004FF0000C130E04BF12020CF1080C130FF3
:1017800004BF12010CF1040C930F04BF92000CF182
:10179000020CD30F04BF52000CF1010C11464FF0A4
:1017A0000002A0F11F00A0EB0C00704711F0004FE9
:1017B00008BF704731F000413FF4D5AF0B0C06BFB6
:1017C00009044FF0100C4FF0000C0B0E04BF09027F
:1017D0000CF1080C0B0F04BF09010CF1040C8B0F6A
:1017E00004BF89000CF1020CCB0F04BF49000CF1BF
:1017F000010CCCF12003A0EB0C0022FA03F302FA57
:101800000CF241EA030100F10100704720F07F4C27
:1018100080EA030023F07F47ACEB070303F57C531A
:1018200000F0004003F1FF032DE980494FEA154B1A
:1018300009B44FEA144325EA0B4E24EA03480FF299
:10184000042606EB132749083E785FEA320203FBC1
:101850000667C7F5000707FB06F64FEA54374FEA5D
:10186000D64606F1020607FB066CCCF1005C4FEA97
:101870001C472CEA074C07FB06F40CFB06F504EBAF
:1018800015464FEA961634BF00204FF000404FEA4D
:10189000D13706FB07FC4FEA1C4C0CFB0BF7D21BA5
:1018A00003FB0CF761EB07010CFB0EF7B0EB0740F5
:1018B00072EB17420CFB08F734BFA2EB0742B2EB06
:1018C000074261EB17414FEA0C444FEA910706FBD0
:1018D00007FC4FEA1C4C0CFB0BF7B0EBC74072EB5C
:1018E000573203FB0CF734BFA2EBC742B2EBC7423F
:1018F00061EB57310CFB0EF7B0EBC70072EB577280
:101900000CFB08F734BFA2EBC702B2EBC70261EBD6
:101910005771039F4FEA816141EA921104EBCC04B5
:101920004FEAD1374FEA826206FB07FC42EA901287
:101930004FEA80604FEA1C4C0CFB0BF7D21B03FBF9
:101940000CF761EB07010CFB0EF7B0EB074072EBF5
:1019500017420CFB08F734BFA2EB0742B2EB074279
:1019600061EB17414FEA8C554FEA910704EB9C2439
:1019700006FB07FC4FEA1C4C0CFB0BF7B0EBC74017
:1019800072EB573203FB0CF734BFA2EBC742B2EB4A
:10199000C74261EB57310CFB0EF7B0EBC70072EB9F
:1019A00057720CFB08F734BFA2EBC702B2EBC702B9
:1019B00061EB577115EB4C254FEA816141EA9211B9
:1019C0004FEA82624FEAD13742EA901206FB07FCE7
:1019D00044F100044FEA80604FEA1C4C0CFB0BF70B
:1019E000D21B03FB0CF761EB07010CFB0EF7B0EB0E
:1019F000074072EB17420CFB08F734BFA2EB07421B
:101A0000B2EB074261EB174115EB1C154FEA813130
:101A100041EA92414FEA823242EA90424FEA8030F4
:101A20004FEA0C7644F1000448EA03434EEA0B48BF
:101A30004FF0000EB2EB080C71EB030724BF6246B7
:101A400039464EEB0E0E4FF0000B00185241494143
:101A50004BEB0B0BB2EB080C71EB03077BF1000BAC
:101A600024BF624639464EEB0E0E4FF0000B0018B5
:101A7000524149414BEB0B0BB2EB080C71EB0307E6
:101A80007BF1000B24BF624639464EEB0E0E51EA45
:101A9000020718BF46F0010616EB0E7655F100025C
:101AA00054F1000103D5BDE88901BDE80088BDE817
:101AB0008901BDE80048B619524141EB0101A3F18B
:101AC0000103704780807F7E7D7C7B7A7978777692
:101AD00076757473727171706F6E6E6D6C6C6B6A0B
:101AE0006A696868676666656464636362616160A9
:101AF000605F5F5E5E5D5D5C5C5B5B5A5A59595826
:101B0000585757565655555554545353525252518F
:101B1000515050504F4F4F4E4E4D4D4D4C4C4C4BE5
:101B20004B4B4A4A4A49494948484847474747462C
:101B30004646454545444444444343434342424268
:101B40004241414146EA0646A3F570534FEA164624
:101B500046EA42564FEAD22242EA415210B54FEAD3
:101B6000D121A3F1010300F02FF820F0004000F193
:101B7000020C00F0004701EB00501146BCF5006F6D
:101B800040EA070000D210BDBAF1000F0AD01CB520
:101B900003B44FF004004FF004014FF000000FBCFD
:101BA000BDE810404FF00001BBF1010FB9BF044880
:101BB0004FF0FF310348002140EA070010BD00BF8D
:101BC000FFFFEF7F0000F07F002B9C4630D47700B2
:101BD0002BD01CB54FEA370703B44FF010004FF07D
:101BE0001001BAF1000F06D0BCF1000FDCBF40F0CD
:101BF000080040F008014FF000000FBCBDE81040A5
:101C00000BF1010BBBF1010F08BF5FEA170722BF01
:101C100012F1010211F101014FF0004143F1000303
:101C200000F0004043EA00007047F9D35708D0E7BE
:101C300046EA064613F1400F4FEA16461FDD13F140
:101C4000200FDFBF16430A46002120335B42BED07F
:101C5000C3F1200746EA064602FA07F74FEA16469E
:101C600046EA0706C3F1200722FA03F201FA07F752
:101C700021FA03F14FF0000342EA0702A7E746EA20
:101C8000020646EA06464FEA164646EA0106BCBF89
:101C900046EA0646360C4FF000034FF000024FF0C4
:101CA000000194E72DE9804C9A46934670B491E880
:101CB000380007C831EA400C48BF34EA430C03D56A
:101CC000FFF7A4FDFFF780FFF0BCBDE8008C2DE915
:101CD000804C9A46934670B491E8380007C831EAC0
:101CE000400C48BF34EA430C03D5FFF78FFDFFF7E4
:101CF00029FFF0BCBDE8008C2DE9804C9A46934644
:101D000070B491E8380007C810F0804F08BF13F096
:101D1000804F03D100F01AF8FFF756FFF0BCBDE882
:101D2000008C2DE9804C9A46934670B491E83800B7
:101D300007C810F0804F08BF13F0804F03D100F0A8
:101D400005F8FFF7FFFEF0BCBDE8008C20F07F47F0
:101D500080EA030023F07F4C07EB0C03A3F57C53D0
:101D600000F00040A3F1FE0392F0000F00F0B380FA
:101D700095F0000F00F077802DE901494FEA1140FE
:101D80004FEA144621EA004800FB06FC24EA064715
:101D900008FB06F607FB08F800FB07F718EB0648F8
:101DA0004CEB164C4FEA124B18EB07484FEA15461E
:101DB0004CEB174022EA0B4E0BFB06FC25EA0647CC
:101DC0000EFB06F607FB0EFE0BFB07F71EEB064E9F
:101DD0004CEB164C4FF000061EEB074E4CEB174B2E
:101DE00018EB0B0840F1000018EB0E0B58EB000845
:101DF00040F100008F1A4FF000013CBFC943661B41
:101E000014BFB5EB040C00213CBFC943F61B4FEADD
:101E100017444EEA8E0E27EA04454FEA1C4704FB9E
:101E200007622CEA074C05FB07F70CFB05F604FBE1
:101E30000CFC16EB074642EB174216EB0C4642EB46
:101E40001C421BEB060658EB0202414146EA9E0685
:101E500001D5BDE80189B619524141EB0101A3F159
:101E60000103BDE801894FEA14454FEA114724EA0E
:101E7000054621EA074C05FB07F406FB07F70CFBB8
:101E800006F105FB0CFC11EB074144EB17444FEA4C
:101E9000124711EB0C4144EB1C4422EA074C05FBB2
:101EA00007F206FB07F70CFB06F605FB0CFC16EB2E
:101EB000074642EB174216EB0C4642EB1C456A18EC
:101EC00054F1000148BF7047B619524141EB01017E
:101ED000A3F10103704795F0000F37D04FEA11428C
:101EE0004FEA144721EA024624EA074C02FB07F1B5
:101EF00006FB07F70CFB06F402FB0CFC14EB074493
:101F000041EB17414FEA154714EB0C4441EB1C41E0
:101F100025EA074C02FB07F506FB07F70CFB06F664
:101F200002FB0CFC16EB074645EB174516EB0C467F
:101F300045EB1C42121951F1000148BF7047B61918
:101F4000524141EB0101A3F1010370474FEA1445EF
:101F50004FEA114724EA054621EA074C05FB07F141
:101F600006FB07F70CFB06F24FF0000605FB0CFC26
:101F700012EB074241EB174112EB0C4251EB1C41B3
:101F800048BF7047921841EB0101A3F1010370476C
:101F9000FEE770474FF4806000F07AB810B590F813
:101FA00021100022022905D00421816380F820201D
:101FB000012010BD01680B6823F00E030B6001685F
:101FC0000B6823F001030B6090F84030C46B0121D3
:101FD00001FA03F3636080F8211080F82020104696
:101FE00010BD000010B590F821100024022903D084
:101FF0000421816301243DE001680A6822F00E0299
:102000000A6001680A6822F001020A601A4A01683F
:10201000914201D1012121E0174A1432914201D1AC
:1020200010211BE0144A2832914201D1891515E094
:10203000114A3C32914201D189140FE00E4A5032CC
:10204000914202D14FF4803108E00B4A6432914250
:1020500002D14FF4801101E04FF08071064A083A36
:102060005160012180F82110002180F82010416B7F
:1020700001B18847204610BD08000240B0F5806FCE
:1020800002D102490120C871704700007000002091
:10209000044910B50A68024202D00860FFF7EEFF5B
:1020A00010BD0000140401402DE9F84FDFF8B8918D
:1020B0000024A9F1040B23460F2709F1040AABF110
:1020C000040EC9E00125A5402A40AA427DD1674EF1
:1020D000D1F804C0ACEB0608B44532D014DCBCF136
:1020E000030F3AD009DCBCF1000F2AD0BCF1010F7C
:1020F0001CD0BCF1020F31D11DE0BCF1110F17D083
:10210000BCF1120F2AD119E0B8F5881F19D006DCEE
:10211000B8F5803F15D0B8F5801F1FD111E0B8F594
:10212000001F0ED0B8F5041F18D10AE0CB6815E0E7
:10213000CB681B1D12E0CB6808330FE0CB680C3373
:102140000CE08B682BB1012B4FF0080303D04561E5
:1021500004E0042302E0056100E00023FF2A01D827
:10216000064601E000F104064FEA840501D9A5F115
:102170002005D6F8008007FA05FC28EA0C0803FAC7
:1021800005F548EA0508C6F800804D68ED0062D5FF
:10219000374DAE6946F00106AE61AD6924F0030625
:1021A00005F001050095334D06EB050CDCF80850F1
:1021B000A607360F07FA06F825EA0805DFF8B88003
:1021C000404503D14FF0000817E044E0DFF8AC8051
:1021D000404502D14FF001080FE0DFF8A4804045F0
:1021E00002D14FF0020808E0DFF89880404502D1A4
:1021F0004FF0030801E04FF0040808FA06F848EA37
:102200000508CCF808804D68D9F80060ED024D460D
:1022100001D5164300E096432E604D68DAF8006061
:10222000AD02554601D5164300E096432E604D6839
:10223000DBF80060AD035D4601D5164300E0964330
:102240002E604D68DEF80060ED03754601D516433B
:1022500000E096432E60641C0D682A46E5407FF43A
:1022600031AFBDE8F88F00000804014000001110F4
:10227000001002400000014000080140000C014035
:102280000010014000140140C26821EA02030A4024
:1022900043EA0241016170470AB1016170470904D4
:1022A000FBE70000014880687047000098000020AC
:1022B00002488168027811448160704798000020CC
:1022C000074810B5016841F010010160032000F0DB
:1022D00075F80F2000F006F800F024F8002010BD7B
:1022E0000020024070B50D4D04464FF47A712878F5
:1022F000B1FBF0F00A490968B1FBF0F000F0DCFA3C
:1023000048B9102C07D200222146501E00F036F8A2
:1023100000206C6070BD012070BD0000980000209E
:10232000A40000200C4808B5816941F001018161D9
:10233000816901F001010091C16941F08051C161E1
:10234000C06900F0805000900448416821F0E061CD
:1023500041F00071416008BD0010024000000140E2
:10236000002809DB00F01F02012191404009800094
:1023700000F1E020C0F8001170470000F0B40E4BEF
:102380001B680C46C3F30223C3F10705042D00D9D3
:102390000425191D072901D2002300E0DB1E0126B8
:1023A00006FA05F1491E214099409E40761E1640CE
:1023B0003143F0BC01F0B9BE0CED00E0064900F07D
:1023C000070208684FF6FF03184040EA0220034A5C
:1023D00010430860704700000CED00E00000FA05B3
:1023E0002DE9F0470F46050061D0434E306800F0FC
:1023F0000700B84209D2306820F007003843306047
:10240000306800F00700B84251D128683B4C810782
:1024100012D5400703D5606840F4E060606028781A
:10242000000703D5606840F4605060606068A96888
:1024300020F0F000084360602878C00728D0686862
:10244000012810D02168022810D0890700292EDA2F
:10245000616821F0030101436160FFF723FF8046BB
:1024600041F288390DE021688903EFE78901EDE742
:10247000FFF718FFA0EB0801494502D90320BDE88A
:10248000F0876068696800F00C00B0EB810FEFD155
:10249000306800F00700B8420BD9306820F0070020
:1024A00038433060306800F00700B84201D00120A6
:1024B000E5E72878400705D56068E96820F4E06022
:1024C000084360602878000706D56068296920F411
:1024D000605040EAC100606000F038F86168084A66
:1024E000C1F30311515CC840064908600648006802
:1024F000FFF7F8FE0020C2E7002002400010024073
:10250000065F0008A40000209C0000200448054944
:1025100000684968044AC1F30221515CC840704711
:10252000A400002000100240165F0008044805497E
:1025300000684968044AC1F3C221515CC840704731
:10254000A400002000100240165F00080E4A5168E7
:102550000E4801F00C03042B11D0082B0FD10C48AE
:10256000C1F38343C903C05C0AD55168084AC1F36B
:102570004041921E515C054A5043B0FBF1F0704758
:1025800004494843704700000010024000127A00DE
:10259000F65E000800093D002DE9F84F040070D0F8
:1025A0002078C04DC00749D06868C0F38100012879
:1025B00007D06868C0F38100022809D16868C003A9
:1025C00006D52868800339D560680028E7D035E053
:1025D0006068B0F5803F0BD010B1B0F5A02F11D0DE
:1025E000286820F480302860286820F4802002E0E9
:1025F000286840F480302860606890B1FFF752FE90
:1026000006460AE0286840F480202860F0E700BF12
:10261000FFF748FE801B642873D828688003F7D52D
:102620000CE0FFF73FFE064605E000BFFFF73AFE6D
:10263000801B6428F0D828688003F7D420789A4E4D
:1026400080074FF001094FF0000839D5686810F095
:102650000C0F07D06868C0F38100022809D16868B0
:10266000C00306D42868800714D52069012808D142
:1026700010E02069B0B1C6F80090FFF713FE0746DE
:1026800005E00AE1FFF70EFEC01B0228C4D8286847
:102690008007F7D52868616920F0F80040EAC1009A
:1026A00028600DE0C6F80080FFF7FCFD074604E057
:1026B000FFF7F8FDC01B022823D828688007F7D44D
:1026C000207800072CD57948A169D9B1C0F80090CD
:1026D000FFF7E8FD074604E0FFF7E4FDC01B022812
:1026E0000FD8686A8007F7D571484FF4FA5100682F
:1026F000B0FBF1F0009000BF0098411E0091FAD2AB
:102700000EE080E0C0F80080FFF7CCFD074604E053
:10271000FFF7C8FDC01B022875D8686A8007F7D488
:102720002078400760D5E8690027C00008D4E86930
:1027300040F08050E861E869012700F08050009087
:102740005C480168C90513D40168834641F480716F
:102750000160FFF7A7FD824606E000BFFFF7A2FD7C
:10276000A0EB0A0064284ED8DBF80000C005F5D5C0
:10277000E06801280AD008B1052813D0286A20F0A3
:1027800001002862286A20F0040002E0286A40F074
:1027900001002862E06841F2883B98B1FFF782FDB2
:1027A00082460BE0286A40F004002862EEE700BF92
:1027B000FFF778FDA0EB0A0159455AD8286A80072F
:1027C000F6D50CE0FFF76EFD824605E0FFF76AFDE7
:1027D000A0EB0A0159454CD8286A8007F6D41FB1EE
:1027E000E86920F08050E861E06988B36968C1F366
:1027F0008101022944D00228C6F8608004D0FFF786
:1028000051FD044638E034E0FFF74CFD074604E094
:10281000FFF748FDC01B02282BD828688001F7D499
:10282000206AB0F5803F05D16868A16820F40030C7
:1028300008436860D4E908010843696821F4741109
:1028400008436860C6F86090FFF72CFD044606E078
:1028500025E000BFFFF726FD001B022809D82868E5
:102860008001F7D51BE000BFFFF71CFD001B02280D
:1028700002D90320BDE8F88F28688001F4D40EE067
:102880000128F7D06868226A00F48031914204D1AF
:10289000616A00F47010884201D00120EAE700204C
:1028A000E8E700000010024000004242800442427B
:1028B000A40000200070004010B5401EB0F1807FE1
:1028C00001D3012010BD4FF0E02460610F2160179B
:1028D00001F02BFC0020A06107202061002010BD2A
:1028E0007047704770B590F83C20012A26D001242B
:1028F00080F83C40022280F83D2003685A689D68B9
:1029000022F070060A6832435A600D4B02689A4200
:1029100008D0B2F1804F05D00A4B9A4202D00A4B40
:102920009A4204D1496825F080031943916080F8E8
:102930003D40002180F83C10084670BD022070BD6B
:10294000002C0140000400400008004010B50400C5
:1029500003D094F83D0010B107E0012010BD002025
:1029600084F83C00204600F01FF8022084F83D0067
:10297000211D206801F014F9012084F8460084F834
:102980003E0084F83F0084F8400084F8410084F859
:10299000420084F8430084F8440084F8450084F839
:1029A0003D00002010BD000008B5154A016815481B
:1029B00091420ED1816941F40061816180690022F8
:1029C00000F40060009011461920FFF7D7FC192091
:1029D00010E00D4A914211D1C16941F00201C1617B
:1029E000C069002200F00200009011461D20FFF790
:1029F000C5FC1D20BDE80840FFF7B2BC08BD0000C3
:102A0000002C0140001002400004004090F83D10EE
:102A1000012901D001207047022180F83D10016892
:102A2000CA6842F00102CA6000680B49884208D0B7
:102A3000B0F1804F05D00949884202D00849884248
:102A400004D1816801F00701062903D0016841F033
:102A50000101016000207047002C0140000400408B
:102A60000008004070B5044690F83C00002501289D
:102A700017D0012684F83C60022084F83D002068CD
:102A8000826822F0770222F47F4282600868502830
:102A900038D00DDC20284FD005DC90B3102811D1A0
:102AA0004AE0022070BD302846D040280AD13BE0E1
:102AB00060282FD070280DD0B0F5805F03D0B0F51E
:102AC000005F12D0012584F83D60002084F83C00AE
:102AD000284670BDCB68D1E90121206801F0A9F832
:102AE0002068816841F0770109E0CB68D1E90121D4
:102AF000206801F09EF82068816841F4804181607F
:102B0000E1E719E0CA684968206801F047F95021F7
:102B1000206806E0CA684968206801F050F9602121
:102B2000206801F090F8CEE7CA684968206801F093
:102B300035F940212068F4E7226801461046F0E7A5
:102B400070472DE9F04104460068C66805694FF0FA
:102B50000007A90713D5B10711D5F91E016101209E
:102B60002077206880698007204602D0FFF7E8FFC1
:102B700004E000F0A3F8204600F046F92777680744
:102B800016D5700714D521686FF004000861022083
:102B900020772068806910F4407F204602D0FFF73C
:102BA000CFFF04E000F08AF8204600F02DF92777E7
:102BB000280715D5300713D521686FF00800086184
:102BC000042020772068C0698007204602D0FFF7E4
:102BD000B7FF04E000F072F8204600F015F92777FF
:102BE000E80616D5F00614D521686FF010000861CC
:102BF000082020772068C06910F4407F204602D06A
:102C0000FFF79EFF04E000F059F8204600F0FCF8C2
:102C10002777E80708D0F00706D021686FF0010099
:102C20000861204600F040F9280608D5300606D590
:102C300021686FF0800008612046FFF751FE6806AA
:102C400008D5700606D521686FF04000086120465F
:102C500000F03CF9A8060AD5B00608D521686FF047
:102C6000200008612046BDE8F041FFF73ABEBDE80C
:102C7000F081000000B585B0002100910191029122
:102C800003910068B0F1804F11D10A48816941F089
:102C9000040181618069694600F00400049001200C
:102CA00000900220019003900348FFF7FDF905B062
:102CB00000BD00000010024000080140704770B5E0
:102CC000044690F83C0000260D4601280FD0012054
:102CD00084F83C006AB1042A1DD0082A2FD00C2A9F
:102CE0003FD00126002084F83C00304670BD022011
:102CF00070BD206800F0B0FF2068816941F00801D4
:102D000081612068816921F0040181612068816905
:102D10002A69114311E0206800F0C6FF206881692C
:102D200041F4006181612068816921F480618161E1
:102D3000206881692A6941EA02218161D2E720681D
:102D400000F0DEFF2068C16941F00801C161206820
:102D5000C16921F00401C1612068C1692A69114378
:102D600011E0206800F0F8FF2068C16941F40061BB
:102D7000C1612068C16921F48061C1612068C169B5
:102D80002A6941EA0221C161ACE710B5040003D011
:102D900094F83D0010B107E0012010BD002084F838
:102DA0003C00204600F01EF8022084F83D00211D62
:102DB000206800F0F5FE012084F8460084F83E000B
:102DC00084F83F0084F8400084F8410084F8420011
:102DD00084F8430084F8440084F8450084F83D00FA
:102DE000002010BD08B50068B0F1804F08D105483B
:102DF000C16941F00101C161C06900F001000090AA
:102E000008BD0000001002407047000010B50446E5
:102E1000022249B104290ED0082913D094F84100A8
:102E2000012816D0012010BD94F83E000128F9D1E8
:102E300084F83E200FE094F83F000128F2D184F896
:102E40003F2008E094F840000128EBD184F84020AE
:102E500001E084F841200122206800F0DDFE0F49E6
:102E60002068884203D1426C42F4004242642068E8
:102E7000884208D0B0F1804F05D00949884202D07D
:102E80000849884204D1816801F00701062903D06E
:102E9000016841F001010160002010BD002C0140DB
:102EA00000040040000800400068054B0121054A6D
:102EB000984200D11172044B984200D19171704731
:102EC000002C014070000020000400407047704753
:102ED00070470000F8B5016804460868CA684B6985
:102EE00010F00F0F4FF0000559D003F0010602F467
:102EF0009077374365D0C10705D0D10503D5616C04
:102F000041F001016164410705D5D90703D0616C27
:102F100041F002016164810705D5D90703D0616CD6
:102F200041F004016164010707D502F0200131433B
:102F300003D0616C41F008016164616C00293AD0F2
:102F4000800604D5900602D5204600F079FF20685F
:102F50004069616CC0F38010090700D460B320465B
:102F600000F047FF20684069400621D520681430F2
:102F700050E8001F21F0400140E80012002AF5D17E
:102F8000E06BA8B16D494163E06BFFF72BF80028B7
:102F900011D0E06B416B01B0BDE8F04008478306FB
:102FA0000FD593060DD52046BDE8F84000F048BF88
:102FB0002046FFF78DFFF8BD2046FFF789FF6564C7
:102FC000F8BD266B2023012E7CD1C6067AD5D60605
:102FD00078D508684868009048694FF002064006B6
:102FE00040D5E16B086840680004000CE8D0A28D71
:102FF0008242E5D9E085886920282DD020680C30F0
:1030000050E8001F21F4807140E80012002AF5D139
:103010002068143050E8001F21F0010140E8001240
:10302000002AF5D12068143050E8001F21F040013B
:1030300040E80012002AF5D184F842302563206868
:103040000C3050E8001F21F0100140E80012002A67
:10305000F5D1E06BFEF7A2FF6663A08DE18D401A0B
:1030600081B22AE0A08DE18D401A81B2E08D002866
:10307000A6D00029A4D022680C3252E8000F20F418
:10308000907042E80007002FF5D12068143050E816
:10309000002F22F0010240E80027002FF5D184F82C
:1030A0004230256320680C3050E8002F22F01002D7
:1030B00040E80023002BF5D166632046FFF707FFA9
:1030C000F8BDFFE705062BD5150629D594F8410074
:1030D0002128F5D1A068B0F5805F01D12069B0B199
:1030E000206A411C2162216800784860E08C401E03
:1030F0000004000CE084E3D12068C16821F0800165
:10310000C1602068C16841F04001C160D8E7206A11
:103110000088C0F308004860206A801C2062E5E750
:103120004006CDD55006CBD5CA68204622F04002D5
:10313000CA6084F8413000F001F9C1E7E33D0008BE
:1031400070B5040004D094F84100002510B106E0E9
:10315000012070BD84F84050204600F023F8242060
:1031600084F841002068C16821F40051C160204604
:1031700000F0C8FE2068016921F4904101612068D7
:10318000416921F02A0141612068C16841F4005180
:10319000C1606564202084F8410084F842006563C2
:1031A000002070BD30B585B00024009401940294D5
:1031B000039400681B49884232D11B48816941F45D
:1031C00080418161816901F480410491816941F00C
:1031D000080181618069154D00F0080004904020CD
:1031E0000090022001900320039069462846FEF7D4
:1031F0005BFF8020CDE90004694628460294FEF773
:1032000053FF0B48416841F0E06141F00401416027
:10321000002211462520FFF7B1F82520FFF7A0F87E
:1032200005B030BD0038014000100240000C0140E4
:103230000000014090F84230202B01D0022070475E
:1032400021B11AB10023036300F0B8BE012070471A
:1032500030B40F4A0168914217D10E4B0022194633
:103260005D790D4C4989522D05D0632906D26554EC
:10327000491C598103E06254012119705A810549A2
:10328000012230BC491DFFF7D5BF30BC704700009C
:103290000038014070000020080100202DE9F843AB
:1032A000044690F84100984616460D46202802D064
:1032B0000220BDE8F88385B17EB100206064212042
:1032C00084F84100FEF7EEFFA6848146E684A068FC
:1032D0002027B0F5805F02D003E00120E9E72069F4
:1032E00010B12E4600250EE000260CE0802120467D
:1032F00000F07FFEA8B9C6B116F8010B216848603E
:10330000E08C401EE084E08C4B464FF00002CDF88C
:1033100000800028EAD14FF04001204600F069FE0D
:1033200040B184F841700320C3E735F8020BC0F3C5
:103330000800E3E784F841700020BAE77047FEE731
:103340002DE9F04385B000242A48009401940294AA
:103350000394816941F010018161816901F01001DC
:103360000491816941F004018161816901F00401E6
:103370000491816941F0080181618069DFF87880FA
:1033800000F008004FF40055049000222946404602
:10339000FEF782FFDFF8649041F20207002239460F
:1033A0004846FEF779FF0095022601250396CDE9F0
:1033B000015469464046FEF777FE00970396CDE933
:1033C000015469464846FEF76FFEA80200900C487B
:1033D000CDE9010469464846FEF766FE0022114623
:1033E0002820FEF7CBFF2820FEF7BAFF05B0BDE886
:1033F000F08300000010024000100140000801406E
:103400000000111010B586B00024184800940194F3
:1034100002940394049414490594016040F21F310E
:10342000C0E9011440F2E731C0E90314446184614A
:10343000FFF78CFA08B172B6FEE74FF480500090A7
:1034400069460A48FFF70EFB08B172B6FEE704941E
:1034500004A906480594FFF745FA002801D072B682
:10346000FEE706B010BD0000002C01406C010020FA
:1034700010B58AB0002407941C2168460894FCF714
:1034800065FF16484FF0804101600721C0E9011433
:1034900040F2E731C0E903148461FFF776FC08B11C
:1034A00072B6FEE7079407A90C480894FFF71AFACA
:1034B00008B172B6FEE76020CDE900040294002254
:1034C000694606480494FFF7FAFB08B172B6FEE7B6
:1034D0000248FFF7CFFB0AB010BD0000B401002086
:1034E00010B586B000241748009401940294039408
:1034F000049413490594016040F21F31C0E901149E
:1035000040F6C311C0E903148461FFF71FFA08B144
:1035100072B6FEE74FF48050009069460948FFF705
:10352000A1FA08B172B6FEE7049404A9054805940F
:10353000FFF7D8F9002801D072B6FEE706B010BD3B
:1035400000040040FC010020FEE770472DE9F04F29
:10355000BE4C95B0DFF8F082D4E90801BC4F01F011
:1035600097FB20F00045D4E90A0101F091FB20F01F
:103570000040294602F0C6FB02F054F9C4E91001EC
:1035800002460B46D4E9060101F0C8FED7E90C2338
:1035900001F0B0FB05460E460022434601F0BCFF99
:1035A00002D20020414608E0002213462846314658
:1035B00001F078FE04D200200146C4E9120101E0C6
:1035C000C4E91256BB46386D01F041FE012202F0FB
:1035D00045FCA04AA04B01F0A1FE00229F4B01F048
:1035E00045FC01F0D9FA0022974B01F097FE00222A
:1035F0009B4B01F07FFBC4E9140104F13000A046AD
:103600000FC802F025F805460E46D7E91201954A83
:10361000954B01F083FE81468A46D7E91001914A15
:10362000914B01F07BFED4E9002301F077FE4A467E
:10363000534601F073FE81468A46D7E90E01894A56
:10364000894B01F06BFED4E9022301F067FE2A46A4
:10365000334601F063FE4A46534601F04BFB0446F5
:103660000F460022784B01F057FF04D20021764A22
:10367000C8F858100AE0002213462046394601F0E7
:1036800011FE06D200200246C8F85800C8F85C2097
:1036900001E0C8E916475C46744AD4E90A01744B54
:1036A000CDE90C0101F03AFE07468946D4E908014C
:1036B0008346704A704B0B9101F030FE3A464B4600
:1036C00001F018FB614F02460B46C7E91801D7E924
:1036D0000E0101F0BDFFC7E91A01CDE90E01D7E9DE
:1036E0000401D7E9102301F019FE5E4A5E4B01F098
:1036F00015FED4E90C2301F0FDFAC4E90C01206D9C
:10370000401CA0F51C5120650F3901D10020206517
:10371000D4E90201594A5A4BCDE9000101F0FEFDFE
:103720008846D4E9009107468A46544A554B484694
:1037300001F0F4FD3A46434601F0DCFADDE90E23E0
:1037400001F0ECFDD4E90E2301F0D4FAC4E90E0136
:10375000D4E906014C4A4D4BCDE9080101F0DEFDEC
:10376000CDE91201D4E9047CE046494A494B41467F
:10377000384601F0D3FDDDE9122301F0BBFADDE9A3
:103780000E2301F0CBFDD4E9102301F0B3FAC4E914
:103790001001D4E912232846314601F0ABFAC4E9FE
:1037A0001201DDE900013C4A3C4B01F0B7FD0091FC
:1037B0000E903B4A3B4B4846514601F0AFFD2A462E
:1037C000334601F039FF009B0E9A01F041FF0B4692
:1037D000024684E80C06DDE908012F4A2F4B01F070
:1037E0009DFD81468A462E4A2E4B4146384601F0C1
:1037F00095FD2A46334601F01FFF4A46534601F025
:1038000027FF1034244A84E88301DDE90C01234BAF
:10381000103C01F083FD05460E46214A214B5846D7
:103820000B9901F07BFD094BD3E90C2301F004FF58
:103830002A46334601F00CFF0B9AE262203484E8FA
:10384000030815B0BDE8F08F0000594000000020CB
:10385000B0000020182D4454FB2109408087C3404C
:1038600000C062409A9999999999B93F8E6CC3FBAF
:10387000EFFAA33FA5A99E6338D8A63FB5B9946DCA
:103880000EC9D43F0EC9D4BF50118AAB8C4C8FBF28
:103890000D54C1579EE491BF58EFB742A46DE53F68
:1038A00001E760DE3860F9BFFEE7000070B5002474
:1038B00022A1FCF745FD224D3DE00A2C35D2DFE880
:1038C00004F005090D11151B1F23292FFCF72BFDF3
:1038D00068702AE0FCF727FDA87026E0FCF723FDBE
:1038E000E87022E000F0D0FF164A02E000F0CCFFC2
:1038F000154AC2E9000118E000F0C6FF134AF8E7D4
:1039000000F0C2FF124AF4E700F0BEFF01F0C0F978
:1039100028610AE000F0B8FF01F0BAF9686104E03C
:1039200000F0B2FF01F0B4F9A86104A10020FCF797
:1039300007FD641CE4B20028BFD170BD2C0000005C
:103940007000002018000020100000200800002057
:1039500000000020704700000448C179012904D10B
:103960000021C171C168491CC1607047700000200E
:1039700070B5234C21490126E07850BB20462279BE
:10398000204D806982B3012A0DD0022A0AD100207D
:10399000C5E90000206A20F0004002F0B3F801D22F
:1039A0000020207170BD0226B0F5000F06DBD5E9BE
:1039B00000010022134601F075FC0AD3A06910F142
:1039C000FF4F08D3D5E900010022134601F0A4FD02
:1039D00001D2267170BDA06910F0FF4FF9D001F03F
:1039E00021FFC5E9000170BDFFE710F0FF4FFAD0DD
:1039F00001F018FFC5E90001EBE700000000A0405E
:103A0000700000202800002010B5074C207A012803
:103A100009D1E06802F062F8E06100F04BFF20623B
:103A20000020E060207210BD7000002010B5074C2F
:103A30002078002809D00648FFF738FF4FF40051DE
:103A40000448FEF721FC0020207010BD700000200B
:103A5000080100200010014010B50E4C206A01F052
:103A6000E1FE0D4AC2E90001FFF770FDA07870B1D8
:103A70000A4900BFD1E9000101F00AF9606201F0D2
:103A8000D1FE00F0F3FF06490968486310BD0549FF
:103A9000F0E7000070000020200000205800002007
:103AA000B4010020480000207047000070B5104CA1
:103AB000A07900281AD0A078B0B90E49D1E9000148
:103AC00001F0E6F80C490646D1E9000101F0E0F802
:103AD0000A490546D1E9000101F0DAF8014633460A
:103AE0002A46074801F028F80020A07170BD0000A8
:103AF0007000002048000020200000202800002046
:103B000044020020084910B5096800204863074CAA
:103B1000024602212046FEF7BFFB0022A1142046E8
:103B2000BDE81040FEF7B8BBB4010020000801401A
:103B3000FEF7BEBB10B590B028216846FCF706FC26
:103B400014210AA8FCF702FC022000900120049036
:103B500010200024059007946846FEF71DFD08B16B
:103B600072B6FEE70F20CDE90A040C940D940021F3
:103B70000AA80E94FEF734FC002801D072B6FEE7C6
:103B800010B010BD704700000148FEF7DABF00001A
:103B90006C0100200148FEF7D4BF0000FC010020AA
:103BA000F0B50268194B1A4C1A4D4FF080479842F5
:103BB00005D0B84203D0A04201D0A84203D122F0E0
:103BC00070064A683243984205D0B84203D0A042FA
:103BD00001D0A84203D122F44074CA6822434C6940
:103BE00022F08002224302608A68C2620A6882620E
:103BF000984201D109690163012141610169C90745
:103C000003D0016921F001010161F0BD002C0140E8
:103C1000000400400008004010B501F01F0301211E
:103C2000046A99408C430462016A9A40114301621C
:103C300010BD10B5846842EA032224F47F440A438D
:103C40002243826010BD826822F070020A4342F073
:103C5000070181607047000030B5036A026A22F0F4
:103C6000010202624268846924F073050C682C43E7
:103C700023F002058B682B430A4DA8420BD123F099
:103C80000805CB6822F440722B434D6923F00403EE
:103C900015438A692A43426084614968416303622B
:103CA00030BD0000002C014030B5026A036A23F0E9
:103CB00010030362436884690D6824F4E64444EA0F
:103CC00005248D6822F0200242EA05120B4DA8421D
:103CD0000ED1CD6822F0800242EA05124D6923F42C
:103CE000406343EA85038D6922F0400243EA85037D
:103CF0004360846149688163026230BD002C0140E9
:103D000030B5036A026A22F4807202624268C469B2
:103D100023F4007324F073050C682C438D6843EA88
:103D200005230C4DA8420ED1CD6823F4006343EA6D
:103D300005234D6922F4405242EA05128D6923F4AD
:103D4000806342EA05124260C4614968C16303624C
:103D500030BD0000002C014030B5046A026A22F434
:103D6000805202624268C3690D6823F4E64343EA65
:103D700005238D6824F4005444EA0534064DA84216
:103D800004D14D6922F4804242EA85124260C36147
:103D900049680164046230BD002C014010B5036A1B
:103DA000046A24F001040462846924F0F00444EA03
:103DB000021423F00A020A438461026210BD10B5A6
:103DC000036A046A24F010040462846923F0A003E7
:103DD00024F4704444EA023243EA01118261016230
:103DE00010BD10B5406A0021C185C184FFF770F88D
:103DF00010BD01680C3151E8002F22F4907241E8A7
:103E00000023002BF5D10168143151E8002F22F076
:103E1000010241E80023002BF5D1016B012909D1F2
:103E200001680C3151E8002F22F0100241E8002314
:103E3000002BF5D1202180F842100021016370474A
:103E400008B590F84210222901D0022008BD8268EE
:103E50004FF480539A4201D1016921B1816A9A429B
:103E60001BD04AB10AE00268816A5268C2F30802B4
:103E70000A80816A891C08E0026972B1026852688E
:103E800002F07F020A70816A491C8162C18D491E5D
:103E90000904090CC18503D01BE002685268F1E7F0
:103EA0000168CA6822F02002CA600168CA6822F468
:103EB0008072CA6001684A6922F001024A612021C9
:103EC00080F8421000214163026B012A03D0FFF702
:103ED000BFF9002008BD016301680C3151E8002FD3
:103EE00022F0100241E80023002BF5D101680A6896
:103EF000D20602D50A6849680091818DFEF7E7FF76
:103F0000E7E7000070B5044600680169E26821F443
:103F10004051114301612169A06808436169084368
:103F20002168CA6841F20C639A430243CA60206860
:103F30004169A26921F44071114341611E49206821
:103F4000884202D1FEF7F2FA01E0FEF7DFFA00EB59
:103F5000C00101EB0012606864218000B2FBF0F345
:103F6000B3FBF1F36FF018067343B2FBF0F5B2FB4D
:103F7000F0F605EB8305322303EB0515B5FBF1F5F0
:103F8000B6FBF1F605F0F00505EB0615B2FBF0F611
:103F9000B2FBF0F0B0FBF1F06FF01802504306EB0B
:103FA000800003EB0010B0FBF1F0216800F00F007F
:103FB0002844886070BD000000380140816282851D
:103FC000C28500214164222180F84210016921B19B
:103FD0000168CA6842F48072CA6001684A6942F0A6
:103FE00001024A610068C16841F02001C1600020FF
:103FF00070472DE9F843984617460D460446089E3B
:1040000024E0701C22D0FEF74DF9A0EB0800B0426E
:104010001AD8CEB12068C168490717D5802D15D0B0
:10402000402D13D00168C94309070FD4016800254A
:10403000406800902046FFF7DCFE0820606484F8AA
:1040400040500120BDE8F8830320FBE720680068AA
:1040500035EA000004D00020B842D2D00020F1E7B9
:104060000120F9E70148FEF735BF000044020020B7
:104070002DE9F0411E4C1F4E1F4DE078B714E0B102
:10408000012802D0022806D017E01C48D0E9001011
:10409000C5E9001011E0FEF705F942F21071B0FB1E
:1040A000F1F201FB1200B0EB510F01D2206900E0E8
:1040B000606901F0B7FBC5E90001D5E90001002204
:1040C000134601F029FA06D8012202213046FEF7F4
:1040D000E3F8002205E0002202213046FEF7DCF87A
:1040E000012239463046BDE8F041FEF7D5B8000060
:1040F000700000200008014028000020500000202F
:10410000FEE7490050EAC12018BF04204A0D18BF3D
:1041100040F0010040F2FF72B2EB515F08BF40F087
:104120000200012808BF052070470907090E002872
:1041300004DB00F1E02080F80014704700F00F006D
:1041400000F1E02080F8141D704700002DE9F74FC2
:10415000144694B00021C4E902111599079121F089
:104160000045C9498D4206DC1599C4E9000117B024
:104170000020BDE8F08FC549DFF814A3A9423CDD5B
:104180000799C44E0029C44FC44A1599534619DDF6
:1041900001F05EFA554506D0C14AC24B01F058FA0B
:1041A000C4E900010AE04FF0D352BE4B01F050FACF
:1041B00032463B4601F04CFAC4E9000117B0012039
:1041C000BDE8F08F00F096FD554506D0B44AB54BDA
:1041D00000F090FDC4E900010AE04FF0D352B14B6A
:1041E00000F088FD32463B4600F084FDC4E9000142
:1041F00017B04FF0FF30BDE8F08FAB49A9421599D9
:1042000078DB21F0004183468846A84AA84B01F09C
:1042100085F80022A74B00F06DFD00F0BBFF099070
:1042200001F015F806460F469C4A534601F076F811
:1042300043465A4601F000FA80468A46984A994B0E
:104240003046394601F06AF82A0D01250B924246A4
:10425000534601F0F1F9032DC4E9000139D00B9860
:10426000C1F30A51401A05EB45111139814230DA88
:104270009148C346784400EB0510CDF80CA00C9093
:10428000D0E900233046394601F048F802460B4693
:10429000049106905846039901F0DAF980468A465F
:1042A00002460B465846039901F0D2F9049B069A40
:1042B00001F0CEF983460C9803913946D0E90223E8
:1042C000304601F02BF85A46039B01F0C1F96D1CF2
:1042D000BDE707980028A2BF099817B0BDE8F08F86
:1042E000616881F000416160099817B04042BDE803
:1042F000F08FFFE784461598C1F31301C0F30A500D
:10430000A0F2F5304FEA601800F01F06C6F1200059
:10431000139000200690079041F4801E05206D4602
:1043200076B1664A08EB00017A4452F8213002EB7C
:104330008101B3404A68139922FA01F1194305E05B
:104340005F4908EB0002794451F82210A1FB0E27C7
:10435000A1FB0C131A449A4234BF0123002303EB40
:10436000070A05EB8003D3E901B70F448F4234BF3E
:104370000121002193448B4411B1934502D903E0FC
:10438000934501D2012100E00021C3E901B7514466
:1043900045F82010011EA0F10100C1DC0298059F24
:1043A00000F10050800F12900298DDE90356800062
:1043B00000F04DFF834628460D9100F05FFF6FF03F
:1043C0001D0201F04BFDCDE90E01304600F056FF15
:1043D0006FF03D0201F042FD80468A46384600F00B
:1043E0004DFF6FF05D0201F039FD0746424653462E
:1043F000119100F07FFCDDE90E2300F07BFC5A46B2
:104400000D9B00F077FC00250E465A4628460D9B72
:1044100001F01EF9DDE90E2301F01AF94246534678
:1044200001F016F93A46119B01F006F9DFF898A061
:10443000244A534600F072FF07468846234A244B1D
:104440003146284600F06AFF3A46434600F052FCE7
:10445000074688464FF0A84253463146284600F0AA
:104460005DFF3A46434600F045FC159A12F0004FB6
:1044700004D0129A81F0004152421292C4E9000124
:10448000129817B0BDE8F08FFB21E93F7CD90240BC
:10449000FB21F93F7370032E8A19A33B000040549F
:1044A0003163621A61B4D03DFB21394183C8C96DC3
:1044B000305FE43F0000E03FD81C0000541C0000C7
:1044C000361C0000182D4454FB21F93D3326A6115B
:1044D000460B113C2DE9FF4D21F0004807460C46E4
:1044E000B8F1795F08DA00F055FE002801BF00201E
:1044F000324904B0BDE8F08D3A46234610461946CD
:1045000000F00CFF054602462D480E460B460621DC
:10451000784400F05DF82A46334600F0FFFEDDE9FE
:10452000022382468B463846214600F0F7FE0446B9
:104530000F4652465B462846314600F0EFFE2246C3
:104540003B4601F085F807468A464FF0FF32284681
:10455000314601F083FC1B4A90450ADA3A4653463D
:1045600001F076F804B00022BDE8F04D134B01F0E5
:1045700063B8154A4245A8BFA8F500154FF00004DE
:10458000B8BF124D22462B4601F062F80646884617
:1045900022462B460020094901F05AF804460D46F0
:1045A0003A4653463046414601F052F804B022469E
:1045B0002B46BDE8F04D01F03FB800000000F03F91
:1045C0000C1A00003333D33F0000E93F0000D23F14
:1045D0002DE9F0414F1E00EBC7010446D1E900016F
:1045E00015461E4637F006020DD02A46334600F027
:1045F00095FE7F1E04EBC703D3E9002300F07AFB8E
:1046000037F00602F1D1022F25D0042F13D0062F48
:1046100018BFBDE8F0812A46334600F07FFED4E99A
:104620000A2300F067FB2A46334600F077FED4E900
:10463000082300F05FFB2A46334600F06FFED4E902
:10464000062300F057FB2A46334600F067FED4E904
:10465000042300F04FFB2A46334600F05FFED4E906
:10466000022300F047FB2A46334600F057FED4E908
:104670000023BDE8F04100F03DBB00002DE9FF4DF7
:10468000054621F0004084B00C46B0F1795F0BDAAA
:104690002846FFF736FD042808BF00F075F82846C5
:1046A00008B02146BDE8F08D2A460B46104600F0C2
:1046B00035FE06460F462A46234600F02FFE80466A
:1046C00026488A4632463B4605217844FFF780FF5C
:1046D00083461098029160B3214A224B40465146CE
:1046E00000F01CFECDE900015A4640465146029BAF
:1046F00000F014FE82468846DDE906014FF0FF32E5
:1047000001F0ACFB5246434600F0A2FF32463B4666
:1047100000F004FEDDE9062300F09AFFDDE9002346
:1047200000F096FF08B02A462346BDE8F04D00F0A1
:1047300083BF0B465A463046394600F0EFFD084A23
:10474000084B00F0D7FA4246534600F0E7FD08B0A8
:104750002A462346BDE8F04D00F0CCBA4A190000C5
:10476000495555555555C5BF012201F077BB00226B
:1047700013461046114600F079BB40F2013200208A
:104780004FF0E04101F06ABB024A0020110701F03E
:1047900065BB000001FDFFFF10B50446D1E9000133
:1047A00000F002F8206010BDF8B504460D466A46D8
:1047B00000F09EF800987E30009000281EDC002259
:1047C00013462046294600F0A9FC17D0002140F6E8
:1047D00008004FF0000006462046294600F058FA2F
:1047E000044640F6080006EA00014FF0000034F0ED
:1047F000004004BF0220FBF7DCFD29E00098FF2801
:1048000028DB002108464FF0000000F4400600229B
:1048100013462046294600F07FFE8CBF0025012567
:104820000220FBF7C6FD4FF0FF4446B1002D0CBF40
:104830004FF400004FF48000B04218BF084C042130
:1048400008464FF00000002D04BF84F00040F8BD82
:104850002046F8BD20462946BDE8F84000F018BAC9
:10486000FFFF7F7F10B504460A46D4E900031946CE
:1048700000F06AF8C4E9000110BD30380A2801D2FE
:10488000012070470020704730B583B00446FBF725
:104890008BFD05460020CDE9000002462146684612
:1048A000FBF7D8FF2846FBF784FDDDE9000103B0E4
:1048B00030BD000070B50C4C0849094D094EE06947
:1048C00001F04AF8314601F047F8084901F04EF985
:1048D000294601F041F80021E16170BD000030413E
:1048E0006666AA41CDCCCC3D70000020000070422D
:1048F00010B5144600222260114A21F00043934271
:10490000A8BF10BD53EA000208BF10BDB3F5801F59
:10491000A8BF226807DA362201F0A0FA6FF035024C
:1049200021F000432260DFF81CC06FF31E510CEB36
:1049300023531A4441F0FF5141F00051226010BD51
:104940000000F07F02FCFFFF2DE9F04106460C4617
:1049500040F2FF75174635EA14502BD0002213465B
:10496000304600F0DBFB25D03A463046214601F0C8
:1049700075FA06460C4635EA145010D0002213464C
:10498000304600F0CBFB15D10220FBF712FDFFF7FC
:10499000FBFE0A46214662F31E01BDE8F0810220BB
:1049A000FBF707FDFFF7E9FE0A46214662F31E0109
:1049B000BDE8F08130462146BDE8F081FDF780FC7E
:1049C000FFF7B8F8FEF7BCFCFEF71CFDFEF750FD44
:1049D000FEF786FD22482149002401604FF4E131B1
:1049E000C0E901140C21C460C0E904418461C461C0
:1049F000FEF7A6FB08B172B6FEE7FEF7A6FD184863
:104A0000D838FEF703F816484838FDF7FFFF14487A
:104A100000219038FEF7FAF9012212491048FEF7FA
:104A200009FC104D104E6D1FFEF796FFFEF7ECFFD0
:104A3000FEF7FCFF6878012807D0FFF763F82C71B8
:104A40000020C6E90000AC61EEE7FEF791FFFFF73A
:104A50000FFBFFF701F8FFF729F8E5E70038014001
:104A600044020020750000202800002010B50246F6
:104A70000B460020094900F051FC0022084B00F0D1
:104A8000F5F902460B460020014600F033F900F02C
:104A900009F800F0AFFB80B210BD000000408F406D
:104AA000000059402DE9F04D07460E4600F06AFD22
:104AB00004460D463A46334600F0BEFDDFF86CA0D2
:104AC000DFF86CB01B4B0746884616F0004F4FF0DE
:104AD00000020AD000F0E6FB0AD900225B46384605
:104AE000414600F019FD1BD212E000F0DBFB08D2BA
:104AF000002253462046294600F0AAFD04460D46F2
:104B00000EE000225B463846414600F005FD07D81E
:104B1000002253462046294600F0ECF804460D4694
:104B20003146204665F31E01BDE8F08D0000F03FE0
:104B30000000E03F0000E0BF2DE9F04380469DB05B
:104B400014468946184600F06DFE06460F4620467C
:104B500000F068FE04460D46484600F063FE8DE80E
:104B6000F00002460B4607A104A8FBF73FFB82B208
:104B70004FF0FF3304A94046FEF790FB1DB0BDE89F
:104B8000F0830000252E32662C252E32662C252E31
:104B900032660D0A0000000000B5254B21F00042EE
:104BA00087B09A4203DC0022134600922BE0214B8F
:104BB0009A4208D140B94FF00100FBF7FAFBFFF72A
:104BC000D6FD07B000BD03DBFFF7CEFD07B000BD8B
:104BD00002AAFFF7BBFA10F003014FF001000DD05D
:104BE000012914D002291AD00DF1080C9CE80F00FD
:104BF000FFF770FC07B081F0004100BD0DF1080C1B
:104C000000909CE80F00FFF739FD07B000BD0DF1E3
:104C1000080C9CE80F00FFF75DFC07B000BD0DF12C
:104C2000080C00909CE80F00FFF728FDE2E7000069
:104C3000FB21E93F0000F07F10B500290AD0087879
:104C4000002807D005487844FCF7EAFA002801D08C
:104C5000002010BD0248784410BD0000BE140000C2
:104C6000B614000010B500290AD00878002807D033
:104C700005487844FCF7D4FA002801D0002010BD84
:104C80000248784410BD0000AE140000A6140000D5
:104C900021F00042A2F16052B2F5801F01F0004302
:104CA00028BFD2F17F6C0BD95FEA001C43EAC20235
:104CB00042EB507018BF704728BF20F001007047CA
:104CC000B2F5801FBCBF184670474FEA410C1CF577
:104CD000001F02D2084601F010B870B500F0C8FB02
:104CE00000000089FFF7F6BF4FF00040A0F58000FC
:104CF0007047000010B591EA030F48BF83F00043EE
:104D000000F1AE84841A71EB030C05D2121943EB47
:104D10000C03001B61EB0C01DFF824E14FEA115496
:104D2000A4EB135C1EEA430F18BF9EEA445F73D0E6
:104D300023EA0E03DCF1200E21EA045143F4801330
:104D400032D322FA0CFE10EB0E0023FA0CFE41EBDC
:104D50000E01CCF1200E03FA0EFE10EB0E0051F105
:104D60000001B1F5801FCCF1200E32D201EB0451CD
:104D700012FA0EF2BDE8104058BF7047401C38BF11
:104D80005FEA420218BF7047002814BF20F00100FC
:104D900041F100014FEA410313F5001F38BF70478E
:104DA000A1F1C04100F0B2BB012A43EB0302ACF118
:104DB000200CDCF11F0E32BF4FF0000E23FA0CF373
:104DC00010EB030041EB0451B4EB115FD0D0A1EB29
:104DD000045101F5801149085FEA300001EB0451EC
:104DE0000ED350F1000038BF12FA0EFE08D1BDE814
:104DF0001040C9E7401C38BF5FEA4202CAD1C3E78E
:104E0000BDE810404FEA410313F5001F38BF70475B
:104E1000A1F1C04100F07ABB9EEA445F08D011EADC
:104E20005E0FBDE8104004BF01F000410020704754
:104E3000BDE8104070B500F01BFB00BF64FBBE3E38
:104E40000000E0FF02494FF0000000F0D5BF00BFB6
:104E50000000F87F491058BFC1F140415B1058BFB6
:104E6000C3F140438B42EFF3008070472DE9C0410E
:104E700030B4DFF8A0C23CEA111418BF3CEA1314A6
:104E800000F0EC8081EA03051CEA111444EAD574B1
:104E900018BF1CEA131500F0C780A4EB05044FF0FF
:104EA000004545EAC12145EAC32341EA505143EA9E
:104EB000525304F17F74994204F500344FEAC02044
:104EC0004FEAC22208BF904200F09C804FEA13656F
:104ED0000FF24016765D4FEA134506FB05F7C7F162
:104EE000807706FB07F74FEAD737A7FB03687642C0
:104EF000C8F58038A7FB06CE38BFA8F1010807FB2C
:104F000008E64FF0000EA6FB028CE6FB03CEDCF1B8
:104F1000000CCEF1004E38BFAEF1010EA6FB0C58CE
:104F20004FF000074FF00005E6FB0E87A1FB08C617
:104F3000A0FB07CE16EB0E0645F10005E1FB076569
:104F400015F1E04E7EBFA4F580345FEA46066D4160
:104F500016F1800745F100054FEA17274FEA06666C
:104F600047EA0567A6F1DE46B6F1805F4FEA1525F0
:104F70001FD9384624F0010C05EBC471BCF1FE6F5B
:104F800001EB0C1102D8F0BCBDE8008124425CBFEB
:104F900001F5801E9EEAC47F02D4F0BCBDE800810A
:104FA000244238D4F0BCA1F1C041BDE8004100F07A
:104FB000ADBA4FEAD22242EA43524FEAD323A7FBCB
:104FC00002864FEAD02040EA415007FB03661EEA02
:104FD0000E0F4FEAD12105FB026658BFA6EB005623
:104FE000B6EB00564FEA520E4EEAC37E18EB0E0E99
:104FF00056EB530EBDD518EB02085E417F1C55F1F0
:105000000005B6E74FF480154FF000074FF000069B
:105010004FF00008ADE7F0BC4FF0000001F1C041D7
:1050200001F00041BDE8008111EA0C1F0CEA1315E4
:1050300000D00CE013EA0C1F00F025804FF00000B8
:10504000F0BC81EA030101F00041BDE80081F0BC41
:10505000BDE8004181EA030100F058BAF0BCBDE8A8
:10506000004170B500F004FA097EFC3E00F007B87C
:1050700081EA03014FF0000001F00041704781EA2E
:10508000030100F043BAF0BCBDE800414FF000005E
:1050900021497047FFFDFBF9F7F5F4F2F0EEEDEB77
:1050A000E9E8E6E4E3E1E0DEDDDBDAD8D7D5D4D326
:1050B000D1D0CFCDCCCBCAC8C7C6C5C4C2C1C0BF72
:1050C000BEBDBCBBBAB9B8B7B6B5B4B3B2B1B0AF78
:1050D000AEADACABAAA9A8A8A7A6A5A4A3A3A2A15C
:1050E000A09F9F9E9D9C9C9B9A9999989797969517
:1050F00095949393929191908F8F8E8E8D8C8C8BB3
:105100008B8A89898888878786858584848383823A
:10511000828181800000FF070000F87F51EA030CC4
:1051200017D41CF5801F58BFBCF5801F00F1068006
:10513000994218BF704708BF9042704707D711F5D2
:10514000801F58BF13F5801F19D4994270478942B8
:1051500070471CF5801F08D5BCF5801FF7D58B4222
:1051600018BF704708BF824270474FF4001C1CEB09
:10517000410F38BF1CEB430F01D28B42704770B513
:1051800000F076F9922449004FF000514FF080531F
:10519000FFF760BE4FEA41034FEA5353A3F5806324
:1051A000D3F11E03C8BFD3F1210C0CDD4FF0004238
:1051B00042EAC12242EA505232FA03FC8CEAE17C14
:1051C000ACEBE1707047102BC4BF0020704703F5B3
:1051D000787CBCF1FF3F04D06FF0004282EA2100EE
:1051E000704770B500F044F9499224800020704760
:1051F000F2E700004FEA1153A3F58063D3F11E03D9
:10520000A8BFD3F1200C08DB4FF0004242EAC122D4
:1052100052EA505232FA03F0704709420BD4102B75
:10522000C4BF0020704703F5787CBCF1FF3F05D078
:105230004FF0FF3070474FF00000704770B500F03E
:1052400017F900BF4992248000207047F0E710F062
:10525000004248BF4042B0FA80F310FA03F10AD08E
:10526000C3F11D0303F580634FEA415002EB035283
:1052700002EBD12170474FF000007047B0FA80F385
:1052800010FA03F10AD0C3F11D0303F580634FEA5E
:1052900041504FEA035202EBD12170474FF000001A
:1052A0007047000051EA030C17D41CF5801F58BF4B
:1052B000BCF5801F00F10680994218BF704708BFF7
:1052C0009042704707D711F5801F58BF13F5801F14
:1052D00019D499427047894270471CF5801F08D540
:1052E000BCF5801FF7D58B4218BF704708BF8242BC
:1052F00070474FF4001C1CEB410F38BF1CEB430FF1
:1053000001D28B42704770B500F0B2F89224490088
:105310004FF000514FF08053FFF79CBDDFF848C1BC
:1053200070B51CEA111E1EBF1CEA13159EEA0C0F75
:1053300095EA0C0F00F06F8081EA030423EA4C1316
:105340004EEAD47E21EA4C1141F4801143F48013DB
:10535000AE44A1FB024CA0FB0365AEF17F7E361983
:1053600055EB0C05A1FB034C4CF10003A0FB021C08
:1053700016EB0C06654153F10003094218BF46F0D5
:10538000010613F4007F0BD14FEA03314FEA0530D9
:10539000340341EA155140EA16506FF003020AE067
:1053A0004FEAC3214FEAC520F40241EA555140EAD1
:1053B00056506FF0020202EB2E4201EB025585EAD5
:1053C000CE710AD05FEA440C18BF24F0004450F1BB
:1053D000000041F1000120EAD47040F2FE7C6245F9
:1053E00000D270BDA84214BF4FF080444FF040443B
:1053F000002E08BF0024BEF1806FA8BFA1F1C041FC
:10540000BDE8704080F282804FF0000001F1C041A1
:1054100001F0004170479EEA0C0F0CEA131518BF0B
:1054200095EA0C0F06D04FF0000081EA030E0EF053
:10543000004170BD00F01CF88900013E00F007B883
:1054400000F009B84FEA430C5FEA5C5C08D081EADF
:10545000030100F05BB84FEA410C5FEA5C5CF6D1F7
:105460004FF00000014970470000FF070000F87F7F
:105470000EF1020E2EF0030E5EF8046B364205D4D8
:10548000012A43EB030515F5001F12D8012841EB53
:10549000010C1CF5001F0CD80ED14FEAD17C15F57C
:1054A000001F0CEB4C0C0CF1020C08BF4CEBD37C36
:1054B00004E04FF0080C01E04FEAD37C0CEB4C0504
:1054C00026FA05F606F00706B6F1040C06D20EEB36
:1054D000860CBDE870404CF0010C6047DFE80CF032
:1054E000090B02024FF000414FF00000A1F500212E
:1054F00070BD19461046012851EB010418BFD4F5C0
:10550000001484BF002001F0004170BD0808A0F520
:1055100000114FEA3101704753EA010C17D41CF512
:10552000801F58BFBCF5801F00F106808B4218BF5A
:10553000704708BF8242704707D713F5801F58BFD6
:1055400011F5801F19D48B4270479B4270471CF5A0
:10555000801F08D5BCF5801FF7D5994218BF70474A
:1055600008BF904270474FF4001C1CEB430F38BF3C
:105570001CEB410F01D2994270470FB40CBC03BC25
:10558000FFF7C1BE5FEA410C5FEA5C5CACF580638B
:105590005B1C39D4D3F1340240F34580B2F12003CF
:1055A00014DA4FF0010C0CFA02FCACF101030340D9
:1055B000B3EB5C0220EA030008BF10EA0C0F98BFAF
:1055C000704710EB0C0041F1000170470AD0C3F1A5
:1055D000200201FA02FC012821FA03F101FA03F189
:1055E0004CF100004FF0010C0CFA03FCACF101038C
:1055F000B0F1004F21EA030108BF11EA0C0F4FF090
:10560000000088BF61447047B3F1FF3F28BF50EAF4
:10561000C12C01F000414FF0000084BF41F07C51EB
:1056200041F470017047B3F5806FB8BF704770B533
:10563000FFF71EFF40DBB6BE91EA030F10B581F005
:1056400000413FF55FAB83F0004300F009B8000074
:1056500010B591EA030F48BF83F000433FF552AB0A
:10566000841A71EB030C07D212198CF0004C43EB37
:105670000C03001B61EB0C01DFF8A4E14FEA1154AD
:10568000A4EB135C1EEA430F18BF9EEA445F00F0D0
:10569000B08023EA6E03524221EA0451C3EB6E0349
:1056A00038BF5B1EDCF1200E25D322FA0CFE10EB76
:1056B0000E0043FA0CFE41EB0E01CCF1200E03FA72
:1056C0000EFE10EB0E0051F10001CCF1200E29D49A
:1056D00012FA0EF201EB0451BDE8104058BF7047BA
:1056E000401C1CBFB2F1004F704700280CBF491C82
:1056F00020F00100704712EB020E43EB030218BFCB
:105700004FF0010E4EEA4202ACF1200CDCF11E0E0D
:1057100054D943FA0CFE10EB0E0051F1FF31CCF1DD
:105720001E0ED5D50EF1010E12FA0EFE404141EBD0
:10573000010101EB445C5FEA5C5C10D910EBDE70A8
:1057400001EB045138BFBEF1004FBDE8104018BF57
:10575000704700280CBF491C20F00100704730D270
:105760004FEAD42C11F5001124F400641BD0B1FAD7
:1057700081F20B3AA41AA41ED2F12003914030FA10
:1057800003F31943904001EBCC71002C01EB045161
:10579000BDE81040A8BF704701F1C0414FF00000C4
:1057A00001F000417047B0FA80F310FA03F100D124
:1057B00010BDE41A173C4805C90AE4E701EB04519F
:1057C00010BD491001EB0451BDE810404FEA300014
:1057D00002E04FF0000170474A0008BF0042F8D0D5
:1057E000B2F5001F28BF704701F000414FF00000E4
:1057F00070479EEA445F07D011EA5E0FBDE8104093
:1058000004BF002100207047BDE8104070B5FFF7CD
:105810002FFE00BF40DFF63E83F000411046704788
:105820000000E0FF43004FEAD30C4FEA3C0C43403A
:105830001FBF40070CF1605113F0FE4F70471CF082
:10584000006F03D100200CF0004170470CF00043C2
:1058500043EA507010B540EACC0000F008FA00BFEF
:10586000000000924FEA0001FFF750BE4FF00041E8
:105870004FF00000A1F500217047000090EA010FF1
:1058800048BF81F0004100F14482421A3CBF801AB7
:1058900089184FEAD0524FF07F4C1CEA410FA2EB1F
:1058A000D15318BF9CEA026F00F03B804FF0004CD0
:1058B0004CEA00204CEA012121FA03FC10EB0C0C0D
:1058C0001ED202F1FF325FEA1C2040EBC25038BF0B
:1058D00070471CF07F0F4FEA400C18BFBCF17F4FA0
:1058E00038BF7047C3F12003994008BF20F0010082
:1058F000BCF17F4F38BF7047A0F1C04000F0FDB948
:105900004FEA3C00000A40EBC25028BF1CF0FF0FDA
:105910004FEA400CE6D018BFBCF17F4F38BF70474C
:10592000EAE79CEA026F05D010EA5C0F08BF00F0BE
:105930000040704710B500F09AF900BF64FBBE3E0E
:10594000401058BFC0F14040491058BFC1F140411C
:105950008142EFF3008070474FF47F0C1CEAD012B5
:105960001EBF1CEAD11392EA0C0F93EA0C0F00F051
:10597000858090EA010F48BF42F4807240F4000C29
:1059800041F400002CF07F4120F07F4000B58142BF
:10599000A2EB03020FF2081CACEB504EC0F100006A
:1059A0009EF800E04FEA4E0E00FB0EFC38BF4900A7
:1059B0004FEA2C1C02F5FA020CFB0EF34FEACE1E46
:1059C0004FEA112C4FEAC1210EEB635E42EB2242FB
:1059D0000EFB0CFC4FEA1C5300FB03114FEA112C89
:1059E0004FEA01310EFB0CFC4FEADC4C00FB0C11C2
:1059F000C14228BF09184CEB03335DF804EB10EBF0
:105A0000410143EBC250B2F57C0F38BF704729D536
:105A100012F0F00F1CBF00F1C04000F000407047D2
:105A2000008182838485868788898B8C8D8E8F9177
:105A30009293959697999A9C9D9FA0A2A3A5A7A89B
:105A4000AAACAEB0B2B3B5B7B9BCBEC0C2C5C7C9C7
:105A5000CCCED1D4D7D9DCDFE2E6E9ECF0F3F7FA2B
:105A6000FE0000004FEA400C0CF1807CBCF17E4F40
:105A700028BF7047B0F1C04000F03FB990EA010F75
:105A80000CEAD11348BF42F48072624538BF6345C7
:105A900007D213F47F0F16D080EA010000F0004017
:105AA000704710B500F0E3F8097EFC3E00F005B841
:105AB00080EA010000F00040704780EA010000F039
:105AC000004000F01AB912F47F0F04BF024870477B
:105AD00080EA010000F011B90000C07FB0FA80F345
